:100000000C943A000C9457000C9457000C94570031
:100010000C9457000C9457000C9457000C94570004
:100020000C9457000C9457000C9457000C945700F4
:100030000C9457000C9457000C9457000C945700E4
:100040000C9457000C9457000C9457000C945700D4
:100050000C9457009602A002AA02B402C802BE0283
:10006000D202DC0201030B0315031F033303290330
:100070003D03470311241FBECFE5D8E0DEBFCDBF4F
:1000800010E0A0E6B0E0E2EBF6E002C005900D92D1
:10009000A836B107D9F720E0A8E6B0E001C01D926C
:1000A000AA36B207E1F70E94AE000C9457030C94F5
:1000B0000000CF93DF93CDB7DEB727970FB6F89444
:1000C000DEBF0FBECDBF61E080E00E94B30087E0DD
:1000D000E0E6F0E0DE01119601900D928A95E1F7DD
:1000E000CE0101960E94FF0027960FB6F894DEBF5E
:1000F0000FBECDBFDF91CF91089561E080E00E94F7
:10010000CB00089561E080E00E94E30008958091B3
:100110006900813029F40E948200109269000895DC
:1001200080916900811105C00E947D0081E080936B
:100130006900089508B601FE10C088B7826088BFC4
:10014000809168008F5F80936800809168008230A2
:1001500021F40E9487001092680008950E945900BF
:100160000E949A00FDCF813051F028F0823059F082
:10017000833069F008958AB3682B6ABB089587B30A
:10018000682B67BB089584B3682B64BB089581B363
:10019000682B61BB0895813051F028F0823059F00E
:1001A000833069F008958BB3682B6BBB08958BB3D4
:1001B000682B6BBB08958BB3682B6BBB08958BB317
:1001C000682B6BBB0895813059F028F0823069F0BC
:1001D000833081F008958BB3609568236BBB0895DD
:1001E00088B36095682368BB089585B360956823DC
:1001F00065BB089582B36095682362BB0895FC01D6
:1002000080818111B3C08181811154C012BE89B730
:10021000816089BF83B7806883BF8281823011F19A
:1002200028F4882359F0813099F00895863071F1CF
:100230008730B1F1853009F033C21EC083B78E7F9D
:1002400083BF83B78D7F83BF83B78B7F83BF0895C1
:1002500083B7816083BF83B78D7F83BF83B78B7F75
:1002600083BF089583B78E7F83BF83B7826083BFC8
:1002700083B78B7F83BF089583B7816083BF83B7C4
:10028000826083BF83B78B7F83BF089583B78E7FE0
:1002900083BF83B78D7F83BF83B7846083BF089597
:1002A00083B7816083BF83B78D7F83BF83B784604B
:1002B00083BF0895813009F0F3C112BE89B782600F
:1002C00089BF83B7886083BF83B7806883BF83811A
:1002D0008CBF8281823011F128F4882359F081305B
:1002E00099F00895863071F18730B1F1853009F0C9
:1002F000D7C11EC083B78E7F83BF83B78D7F83BF77
:1003000083B78B7F83BF089583B7816083BF83B733
:100310008D7F83BF83B78B7F83BF089583B78E7F25
:1003200083BF83B7826083BF83B78B7F83BF08950A
:1003300083B7816083BF83B7826083BF83B78B7FBE
:1003400083BF089583B78E7F83BF83B78D7F83BFBD
:1003500083B7846083BF089583B7816083BF83B709
:100360008D7F83BF83B7846083BF0895813009F098
:10037000C4C08181811158C01DBC1CBC89B7846078
:1003800089BF8FB584608FBD8FB588608FBD828136
:10039000823011F128F4882359F0813099F00895C2
:1003A000863071F18730B1F1853009F079C11EC016
:1003B0008EB58E7F8EBD8EB58D7F8EBD8EB58B7FBB
:1003C0008EBD08958EB581608EBD8EB58D7F8EBD3C
:1003D0008EB58B7F8EBD08958EB58E7F8EBD8EB50A
:1003E00082608EBD8EB58B7F8EBD08958EB5816087
:1003F0008EBD8EB582608EBD8EB58B7F8EBD08950D
:100400008EB58E7F8EBD8EB58D7F8EBD8EB5846090
:100410008EBD08958EB581608EBD8EB58D7F8EBDEB
:100420008EB584608EBD0895813009F039C11DBC40
:100430001CBC89B7806189BF8FB584608FBD8FB5C3
:1004400088608FBD83819481A581B681892F9A2F81
:10045000AB2FBB278BBD83818ABD8EB588608EBDD7
:100460008281823011F128F4882359F0813099F08B
:100470000895863071F18730B1F1853009F010C1EF
:100480001EC08EB58E7F8EBD8EB58D7F8EBD8EB516
:100490008B7F8EBD08958EB581608EBD8EB58D7FAC
:1004A0008EBD8EB58B7F8EBD08958EB58E7F8EBD31
:1004B0008EB582608EBD8EB58B7F8EBD08958EB554
:1004C00081608EBD8EB582608EBD8EB58B7F8EBDF8
:1004D00008958EB58E7F8EBD8EB58D7F8EBD8EB507
:1004E00084608EBD08958EB581608EBD8EB58D7F82
:1004F0008EBD8EB584608EBD0895823009F0D0C067
:100500008181811163C014BC89B7806489BF85B5BE
:10051000806885BDE2818E2F90E08830910508F0DB
:10052000BFC0FC01E65DFF4F0C94510383B78E7F83
:1005300083BF83B78D7F83BF83B78B7F83BF0895CE
:1005400083B7816083BF83B78D7F83BF83B78B7F82
:1005500083BF089583B78E7F83BF83B7826083BFD5
:1005600083B78B7F83BF089583B7816083BF83B7D1
:10057000826083BF83B78B7F83BF089583B78E7FED
:1005800083BF83B78D7F83BF83B7846083BF0895A4
:1005900083B7816083BF83B78D7F83BF83B7846058
:1005A00083BF089583B78E7F83BF83B7826083BF85
:1005B00083B7846083BF089583B7816083BF83B7A7
:1005C000826083BF83B7846083BF0895813009F060
:1005D00067C014BC89B7806889BF85B5886085BD50
:1005E00085B5806885BD838183BDE2818E2F90E0D3
:1005F0008830910508F054C0FC01EE5CFF4F0C946C
:10060000510383B78E7F83BF83B78D7F83BF83B74B
:100610008B7F83BF089583B7816083BF83B78D7F4E
:1006200083BF83B78B7F83BF089583B78E7F83BFDC
:1006300083B7826083BF83B78B7F83BF089583B7FF
:10064000816083BF83B7826083BF83B78B7F83BFA3
:10065000089583B78E7F83BF83B78D7F83BF83B7B2
:10066000846083BF089583B7816083BF83B78D7F24
:1006700083BF83B7846083BF089583B78E7F83BFB2
:1006800083B7826083BF83B7846083BF089583B7D5
:10069000816083BF83B7826083BF83B7846083BF79
:1006A0000895EE0FFF1F0590F491E02D0994F89442
:0206B000FFCF7A
:0806B2000001079300000000A5
:00000001FF
