S02600003330306D732D426C696E6B696E672D4C45442D776974682D54696D6572732E73726563A4
S11300000C943A000C9457000C9457000C9457002D
S11300100C9457000C9457000C9457000C94570000
S11300200C9457000C9457000C9457000C945700F0
S11300300C9457000C9457000C9457000C945700E0
S11300400C9457000C9457000C9457000C945700D0
S11300500C9457008A0294029E02A802BC02B202C7
S1130060C602D002F502FF020903130327031D038E
S113007031033B0311241FBECFE5D8E0DEBFCDBF63
S113008010E0A0E6B0E0EAE9F6E002C005900D92C7
S1130090A836B107D9F720E0A8E6B0E001C01D9268
S11300A0A936B207E1F70E94A0000C944B030C940C
S11300B00000CF93DF93CDB7DEB727970FB6F89440
S11300C0DEBF0FBECDBF0E94A70087E0E0E6F0E0F0
S11300D0DE01119601900D928A95E1F7CE01019609
S11300E00E94F30027960FB6F894DEBF0FBECDBF73
S11300F0DF91CF9108950E94BF0008950E94D70018
S1130100089580916800813039F462E080E00E94B3
S11301107E0010926800089580916800811106C0E5
S113012062E00E947B0081E080936800089508B635
S113013004FE05C00E94810088B7806188BF0895CD
S113014062E080E00E9459000E949700FDCF813058
S113015051F028F0823059F0833069F008958AB361
S1130160682B6ABB089587B3682B67BB089584B373
S1130170682B64BB089581B3682B61BB08958130FB
S113018051F028F0823059F0833069F008958BB330
S1130190682B6BBB08958BB3682B6BBB08958BB333
S11301A0682B6BBB08958BB3682B6BBB08958130B0
S11301B059F028F0823069F0833081F008958BB3D0
S11301C0609568236BBB089588B36095682368BB0A
S11301D0089585B36095682365BB089582B36095DF
S11301E0682362BB0895FC0180818111B3C08181C1
S11301F0811154C012BE89B7816089BF83B78068FA
S113020083BF8281823011F128F4882359F0813030
S113021099F00895863071F18730B1F1853009F095
S113022033C21EC083B78E7F83BF83B78D7F83BFE6
S113023083B78B7F83BF089583B7816083BF83B700
S11302408D7F83BF83B78B7F83BF089583B78E7FF2
S113025083BF83B7826083BF83B78B7F83BF0895D7
S113026083B7816083BF83B7826083BF83B78B7F8B
S113027083BF089583B78E7F83BF83B78D7F83BF8A
S113028083B7846083BF089583B7816083BF83B7D6
S11302908D7F83BF83B7846083BF0895813009F065
S11302A0F3C112BE89B7826089BF83B7886083BFF8
S11302B083B7806883BF83818CBF8281823011F1D0
S11302C028F4882359F0813099F00895863071F12B
S11302D08730B1F1853009F0D7C11EC083B78E7F56
S11302E083BF83B78D7F83BF83B78B7F83BF08951D
S11302F083B7816083BF83B78D7F83BF83B78B7FD1
S113030083BF089583B78E7F83BF83B7826083BF23
S113031083B78B7F83BF089583B7816083BF83B71F
S1130320826083BF83B78B7F83BF089583B78E7F3B
S113033083BF83B78D7F83BF83B7846083BF0895F2
S113034083B7816083BF83B78D7F83BF83B78460A6
S113035083BF0895813009F0C4C08181811158C0E0
S11303601DBC1CBC89B7846089BF8FB584608FBDF8
S11303708FB588608FBD8281823011F128F4882383
S113038059F0813099F00895863071F18730B1F1D8
S1130390853009F079C11EC08EB58E7F8EBD8EB5B5
S11303A08D7F8EBD8EB58B7F8EBD08958EB5816099
S11303B08EBD8EB58D7F8EBD8EB58B7F8EBD08951F
S11303C08EB58E7F8EBD8EB582608EBD8EB58B7FD1
S11303D08EBD08958EB581608EBD8EB582608EBD52
S11303E08EB58B7F8EBD08958EB58E7F8EBD8EB5F6
S11303F08D7F8EBD8EB584608EBD08958EB581606F
S11304008EBD8EB58D7F8EBD8EB584608EBD0895F4
S1130410813009F039C11DBC1CBC89B7806189BF1A
S11304208FB584608FBD8FB588608FBD83819481C3
S1130430A581B681892F9A2FAB2FBB278BBD8381D2
S11304408ABD8EB588608EBD8281823011F128F418
S1130450882359F0813099F00895863071F18730FE
S1130460B1F1853009F010C11EC08EB58E7F8EBDEE
S11304708EB58D7F8EBD8EB58B7F8EBD08958EB566
S113048081608EBD8EB58D7F8EBD8EB58B7F8EBD0A
S113049008958EB58E7F8EBD8EB582608EBD8EB56D
S11304A08B7F8EBD08958EB581608EBD8EB58260C2
S11304B08EBD8EB58B7F8EBD08958EB58E7F8EBD1D
S11304C08EB58D7F8EBD8EB584608EBD08958EB53C
S11304D081608EBD8EB58D7F8EBD8EB584608EBDE0
S11304E00895823009F0D0C08181811163C014BCA9
S11304F089B7806489BF85B5806885BDE2818E2F08
S113050090E08830910508F0BFC0FC01E65DFF4F24
S11305100C94450383B78E7F83BF83B78D7F83BFDE
S113052083B78B7F83BF089583B7816083BF83B70D
S11305308D7F83BF83B78B7F83BF089583B78E7FFF
S113054083BF83B7826083BF83B78B7F83BF0895E4
S113055083B7816083BF83B7826083BF83B78B7F98
S113056083BF089583B78E7F83BF83B78D7F83BF97
S113057083B7846083BF089583B7816083BF83B7E3
S11305808D7F83BF83B7846083BF089583B78E7FD5
S113059083BF83B7826083BF83B7846083BF0895BA
S11305A083B7816083BF83B7826083BF83B784606E
S11305B083BF0895813009F067C014BC89B780688F
S11305C089BF85B5886085BD85B5806885BD838113
S11305D083BDE2818E2F90E08830910508F054C0ED
S11305E0FC01EE5CFF4F0C94450383B78E7F83BF01
S11305F083B78D7F83BF83B78B7F83BF089583B712
S1130600816083BF83B78D7F83BF83B78B7F83BFB5
S1130610089583B78E7F83BF83B7826083BF83B718
S11306208B7F83BF089583B7816083BF83B7826064
S113063083BF83B78B7F83BF089583B78E7F83BFC8
S113064083B78D7F83BF83B7846083BF089583B7E7
S1130650816083BF83B78D7F83BF83B7846083BF8B
S1130660089583B78E7F83BF83B7826083BF83B7C8
S1130670846083BF089583B7816083BF83B782603A
S113068083BF83B7846083BF0895EE0FFF1F059077
S10D0690F491E02D0994F894FFCFD3
S10B069A010107250100000025
S9030000FC
